:08000000803102288731FD2F39
:100F4400F1007109F000700822008D050800F1001D
:100F54007109F000700822008F050800F100710883
:100F6400F000700822008D040800F1007108F00000
:100F7400700822008F040800F1007109F000700865
:100F840021008D050800F1007109F00070082100AE
:100F94008F0508000F308731C52787310F3087311F
:100FA400BE2787310F308731B72787310F3087311C
:100FB400A22787310630F3001330F200AE30890BDC
:100FC400E12FF20BE12FF30BE12F0F308731A9272B
:100FD40087310F308731B02787310630F300133063
:100FE400F200AE30890BF42FF20BF42FF30BF42F35
:0C0FF400D42F8031022820008731CC2F40
:020000040001F9
:04000E00EA3FFB1EAC
:00000001FF
